:020000040800F2
:10000000880B0020991700080D0700080F0700084B
:1000100013070008170700081B070008000000006E
:100020000000000000000000000000001F070008A2
:10003000210700080000000023070008250700082A
:10004000B3170008B3170008B3170008B317000868
:10005000B3170008B31700082B150008B3170008E2
:10006000B3170008B3170008B3170008B317000848
:10007000B3170008B3170008B3170008B317000838
:10008000B3170008B3170008B3170008B317000828
:10009000B3170008B3170008B3170008B317000818
:1000A000B3170008B3170008B3170008B317000808
:1000B000B31700089B0900088D0A0008B317000851
:1000C000B3170008B3170008B3170008B3170008E8
:1000D000B31700080F170008B3170008B31700087C
:1000E0004F150008B3170008B3170008B31700082E
:1000F000B3170008B3170008B3170008B3170008B8
:10010000B3170008B3170008B3170008B3170008A7
:10011000B3170008B3170008B3170008B317000897
:10012000B3170008B3170008B3170008B317000887
:1001300000F002F800F05AF80AA090E8000C82449F
:100140008344AAF10107DA4501D100F04FF8AFF27C
:10015000090EBAE80F0013F0010F18BFFB1A43F0A5
:10016000010318470C4E00002C4E00000A444FF0CB
:10017000000C10F8013B13F0070408BF10F8014B06
:100180001D1108BF10F8015B641E05D010F8016B4B
:10019000641E01F8016BF9D113F0080F1EBF10F8AF
:1001A000014BAD1C0C1B09D16D1E58BF01F801CBD2
:1001B000FAD505E014F8016B01F8016B6D1EF9D555
:1001C0009142D6D37047000000230024002500266A
:1001D000103A28BF78C1FBD8520728BF30C148BFAA
:1001E0000B6070471FB51FBD10B510BD03F0FCFAC2
:1001F0001146FFF7F7FF00F046F903F01AFB03B4CE
:10020000FFF7F2FF03BC01F027FA00002DE9F84FD9
:100210004FF0000A022000F042FDFE490880084627
:10022000008804F0DDF8834603F02AFF06464FF00D
:100230006632F94B03F03CFD04460022F74B03F015
:1002400037FD804603F002FB8246F548C0F800A067
:10025000504604F08DF80446102002232246194629
:100260000090202000F0F5FEEE49504604F000F921
:10027000054604F061F8642190FBF1F201FB1204E1
:10028000204604F095F88246504604F071F8044682
:1002900010200223224619460090382000F0D9FE93
:1002A000DF480068BDE8F88F2DE9F84F4FF0000AED
:1002B000012000F0F4FCD74908800846008804F0CB
:1002C0008FF8804603F0DCFE06464FF06632D24BD4
:1002D00003F0EEFC044603F0B9FA8246504603F000
:1002E000CFFE80460022D04B03F0E0FD0646CF4A09
:1002F000CF4B03F085FB044603F0A8FA8246CD48B5
:10030000C0F800A0504604F033F804461020012342
:10031000224604210090202000F09BFEC149C548E0
:10032000006804F0A5F8054604F006F8642190FB87
:10033000F1F201FB1204204604F03AF882465046DE
:1003400004F016F8044610200223224604210090EF
:10035000302000F07EFEB7480068BDE8F88F2DE938
:10036000F041002000F0FBFFB34908700846007818
:10037000012835D1C103B14801F08FFB002817D106
:10038000AF480088A8B9AF4908684FF0804104F031
:100390003BF876D2AB49086803F072FE0646AA4ADB
:1003A000AA4B03F085FA044603F050FAA549086009
:1003B00067E0A3480088012803D0A14800880228EC
:1003C0005FD1A3490868A34904F01EF859D2A04997
:1003D00008684FF07E5103F07FFE9D49086050E0B1
:1003E00095480078022834D101219B4801F055FB43
:1003F000002846D192480088A0B992490868002197
:1004000004F002F93DD28F49086803F039FE064630
:100410008D4A8E4B03F04AFD044603F017FA8949D2
:1004200008602EE086480088012803D084480088B0
:10043000022826D186490868002104F0E5F820D278
:10044000834908684FF07E5104F010F98049086034
:1004500017E079480078032813D14FF4005177480A
:1004600001F01BFB68B97D480088401C7B4908806F
:1004700008460088032190FBF1F201FB120070494D
:100480000880BDE8F08108B5002401F07BF84FF446
:10049000A06001F0A1F94FF4E13001F0ECF800F0B8
:1004A00033FA00F08FFB00F035FF00F0A5FE00F0FE
:1004B0003AFD002140F65F1000F07AFA472142F23F
:1004C0000F7000F0B6FA6648664B674A4FF07E51EF
:1004D00000906648006803F035F965480023654AD6
:1004E000654900906548006803F02CF9102364A268
:1004F0000021084600F0F1FD102363A200215020E6
:1005000000F0EBFD102362A20221002000F0E5FDC7
:10051000102362A20421002000F0DFFD102362A25C
:100520000221502000F0D9FD102361A204214820AF
:1005300000F0D3FD102001230090414802880021E3
:10054000782000F086FDDCE0FFF709FF5A480088BC
:10055000401C03F02DFF0746584903F02BFE0646CA
:10056000304903F085FF054603F002FF5449088037
:10057000102002230090084602880021102000F07D
:1005800068FDFFF791FE2B490860FFF73FFE244905
:10059000086010200123009029480288002178205B
:1005A00000F057FD2A49086803F0E2FE05461020D6
:1005B00002232A4619460090682000F04AFD21488F
:1005C0000468204603F0D4FE0546102001232A4685
:1005D00004210090602000F03CFD1A49086824497D
:1005E00003F046FF064603F0A7FE0A2190FBF1F256
:1005F00001FB1205284603F0DBFE0446204603F00B
:10060000B7FE0546102001232A46042100907020E1
:1006100058E000000600002066664A3F00002640C1
:10062000080000200000C84200000440AE47E17A04
:1006300014AEC73F0C000020000000200010014055
:100640001C0000202004002005DB8827BB99A93F5F
:10065000E40300200000F041000801401A000020DF
:10066000000048430000A04100007A43140000202D
:1006700000002041000048420000C040100000205F
:10068000443A2020250000004D4F44453A20000008
:10069000555F543A30302E3030000000495F543AF4
:1006A000302E303000000000556F3A30300000002E
:1006B000496F3A302E3030003600002000001645D9
:1006C0000400002000F0C5FC0E4908680E4903F044
:1006D000CFFE064603F030FE642190FBF1F201FBF1
:1006E0001205284603F064FE0446204603F040FE4F
:1006F0000546102001232A4604210090782000F0AE
:10070000A8FC21E7200400200000C842704700BF79
:10071000FEE700BFFEE700BFFEE700BFFEE7704751
:1007200070477047704700000CB5002001900090A2
:100730006C48006840F480306A49086000BF69482E
:10074000006800F4003000900198401C019000986F
:1007500018B90198B0F5A06FF1D16248006800F4B3
:10076000003010B10120009001E0002000900098BE
:10077000012843D15C48006840F010005A490860E5
:100780000846006820F0030008600846006840F052
:100790000200086053484068524948600846406873
:1007A00048600846406840F48060486008464068F9
:1007B00020F47C1048600846406840F4E810486027
:1007C0000846006840F08070086000BF4548006837
:1007D00000F000700028F9D04248406820F0030083
:1007E000404948600846406840F00200486000BF49
:1007F0003C48406800F00C000828F9D10CBD10B549
:10080000FFF792FF10BD10B53648006840F00100B8
:100810003449086008464068344908403149486016
:1008200008460068324908402E49086008460068BA
:1008300020F4802008600846406820F4FE004860EC
:100840004FF41F008860FFF7DAFF4FF0006029497E
:10085000086010BD10B5002100200022214B5B680C
:1008600003F00C0121B1042906D0082928D107E0A2
:10087000214B224C236027E01F4B204C236023E0B8
:10088000184B5B6803F47010164B5B6803F48032FE
:10089000022303EB904022B9194B4343174C2360CA
:1008A0000DE0104B5B6803F4003323B1144B43435A
:1008B000124C236003E0104B4343104C236003E0D1
:1008C0000D4B0E4C236000BF00BF064B5B68C3F3AB
:1008D00003130C4CE15C094B1B68CB40074C2360B5
:1008E00010BD000000100240002002400000FFF890
:1008F000FFFFF6FE08ED00E000127A002000002065
:1009000000093D002400002008B50121102001F05D
:10091000EDFA4FF40050ADF8000010208DF8030000
:1009200003208DF802006946044801F023F84FF4D3
:100930000051024801F0CBF808BD00000010014052
:100940007FB505460C460121022001F0DCFAADF826
:100950000850ADF804400020ADF80A00ADF80600DC
:1009600001A98B4801F0FAFB01221146884801F0E9
:100970006CFF1D208DF8000000208DF80100032081
:100980008DF8020001208DF80300684600F029FF71
:1009900001217F4801F03EFF7FBD10B501217C4859
:1009A00002F001FA18B10121794802F00DFA10BDE8
:1009B00030B589B005460C460121022001F0A3FAAA
:1009C0000121092001F092FA0121724801F0A3F8F7
:1009D0002020ADF8200018208DF8230003208DF88A
:1009E000220008A96C4800F0C5FFADF81850ADF81A
:1009F00014400020ADF81A00ADF8160005A96448AF
:100A000001F0ACFB6020ADF804000120ADF8060059
:100A10000020ADF80C0001A95D4801F01EFC082182
:100A20005B4802F030F80121594801F0F3FE09B0AB
:100A300030BD7FB505460C460121042001F063FA64
:100A4000ADF80850ADF804400020ADF80A00ADF84C
:100A5000060001A9514801F081FB012211464F48CF
:100A600001F0F3FE1E208DF8000000208DF801003B
:100A700003208DF8020001208DF80300684600F085
:100A8000B0FE0121454801F0C5FE7FBD70B50121D2
:100A9000424802F088F9002878D001213F4802F04E
:100AA00093F93F493F48006803F0AEFD02D80120AA
:100AB0003D4908803D480088B8B93D4801683D4837
:100AC000006802F054FE3C4908603C48008803F08E
:100AD00087FC054638480168284603F0FDFA0446BD
:100AE00003F046FC3549088036E03048008801288C
:100AF00017D12C4801683248006802F038FE2E49B0
:100B000008602E48008803F06BFC05462A480168FF
:100B1000284603F0ABFD044603F02AFC2749088071
:100B20001AE022480088022816D11E48016824488D
:100B3000006802F01CFE204908602048008803F08D
:100B40004FFC05461C480168284603F08FFD04460B
:100B500003F00EFC194908801848008840F69801F7
:100B6000884202DD08461549088014480088C828D4
:100B700002DAC820114908800B480088012804D0F7
:100B80000E480188024802F0DFF800BF70BD000087
:100B90000004004000081A00000C0140000800405A
:100BA0000000C84108000020180000201C000020A0
:100BB0000C000020140000203C0000203600002023
:100BC0001000002000B587B001214FF4017001F042
:100BD0008DF94FF4004001F0EDF81E20ADF804004F
:100BE00000208DF8070001A94D4800F0C3FE4D48D4
:100BF00002F0F2FA002002908DF80C008DF80D0042
:100C00004FF4602004900020059001208DF818001A
:100C100002A9444802F007FB0121424802F02FFBE1
:100C2000404802F04EFB00BF3E4802F04FFB002858
:100C3000FAD13C4802F054FB00BF3A4802F055FBA1
:100C40000028FAD107B000BD10B5044603230122E5
:100C50002146344802F07FFB0121324802F04FFB6D
:100C600000BF02212F4802F0BBFC0028F9D02D481C
:100C700002F0D8FB10BD2DE9F04107460C460025D7
:100C8000002605E03846FFF7DFFF0544701CC6B2BA
:100C9000A642F7DBB5FBF4F080B2BDE8F0812DE9A8
:100CA000F043A3B081464FF00008002506E0484617
:100CB000FFF7CAFF2DF81500681CC5B2462DF6DBFC
:100CC00000261AE0002412E03DF81410601C3DF8E4
:100CD0001000814209DD3DF81470601C3DF81000E1
:100CE0002DF81400601C2DF81070601CC4B2C6F101
:100CF0004600A042E8DC701CC6B2452EE2DB1E2591
:100D000004E03DF815008044681CC5B2282DF8DBCE
:100D10000A2098FBF0F080B223B0BDE8F083000019
:100D2000000801400024014010B54FF40061F9486B
:100D300000F0CDFE4FF48061F64800F0C8FE4FF49D
:100D40008061F44800F0C5FE4FF40061F14800F006
:100D5000C0FE10BD10B54FF40061EE4800F0B7FEC4
:100D60004FF48061EB4800F0B4FE4FF48061E94835
:100D700000F0ADFE10BD10B54FF40061E54800F085
:100D8000A6FE4FF40061E34800F0A3FE10BD2DE97C
:100D9000F04105462C464FF40061DE4800F099FE14
:100DA00000261CE0274607F08007802F04D1F900B9
:100DB000D84800F08CFE04E04FF48061D54800F084
:100DC00088FE6006040E4FF40061D24800F07FFEFA
:100DD0004FF40061CF4800F07CFE701CC6B2082EB4
:100DE000E0DBBDE8F08110B50446FFF79DFF7820F9
:100DF000FFF7CDFFFFF7BFFF0020FFF7C8FFFFF7AA
:100E0000BAFF2046FFF7C3FFFFF7B5FFFFF7A2FFCA
:100E100010BD10B50446FFF787FF7820FFF7B7FF36
:100E2000FFF7A9FF4020FFF7B2FFFFF7A4FF20461E
:100E3000FFF7ADFFFFF79FFFFFF78CFF10BD70B509
:100E400004460D461DB1E0B2FFF7E3FF02E0E0B259
:100E5000FFF7C9FF70BD70B50646002418E004F125
:100E6000B0000021FFF7EBFF00210846FFF7E7FF86
:100E700000211020FFF7E3FF002505E001213046A7
:100E8000FFF7DDFF681CC5B2802DF7DB601CC4B224
:100E9000082CE4DB70BD06E041F6650100E0491E68
:100EA0000029FCD1401E0028F6D17047014605E01C
:100EB000002001E0421CD0B27B28FBDB0A1EA1F11E
:100EC0000101F5D1704770B504460D4605F1B0003B
:100ED0000021FFF7B4FF102141EA14100021FFF7B1
:100EE000AEFF04F00F000021FFF7A9FF70BD10B5A1
:100EF00000218D20FFF7A3FF00211420FFF79FFFA3
:100F00000021AF20FFF79BFF10BD10B500218D2001
:100F1000FFF795FF00211020FFF791FF0021AE2081
:100F2000FFF78DFF10BD70B5002418E004F1B0008C
:100F30000021FFF784FF00210846FFF780FF002112
:100F40001020FFF77CFF002505E001210020FFF7BE
:100F500076FF681CC5B2802DF7DB601CC4B2082C7C
:100F6000E4DB70BD70B5002418E004F1B00000218E
:100F7000FFF765FF00210846FFF761FF0021102001
:100F8000FFF75DFF002505E001210846FFF757FF49
:100F9000681CC5B2802DF7DB601CC4B2082CE4DBF2
:100FA00070BD2DE9F04707460E469046994600254C
:100FB0000024A8F12000C5B27F2F02DD0027B01C5D
:100FC000C6B2B9F1100F24D131463846FFF77BFF86
:100FD000002408E004EB05114F4A505C0121FFF7A3
:100FE0002EFF601CC4B2082CF4DB701CC1B2384662
:100FF000FFF769FF002409E004EB05110831464AB8
:10100000505C0121FFF71BFF601CC4B2082CF3DB0E
:1010100012E031463846FFF756FF00240AE005EBA0
:1010200045013E4A02EB4101085D0121FFF707FF40
:10103000601CC4B2062CF2DBBDE8F08710B5024696
:10104000012000E050430B1EA1F10104E1B2F9D1EF
:1010500010BD2DE9FF5F074691461E460E9D4FF0DD
:10106000000A002435E0301B401EC1B20A20FFF701
:10107000E5FFB9FBF0F00A21B0FBF1F201FB120829
:10108000BAF1000F14D1701EA04211DDB8F1000FAB
:101090000CD1AB4605EBDB71491001FB0471C8B202
:1010A0002B4620220199FFF77CFF10E04FF0010A48
:1010B000AB4605EBDB71491001FB0471C8B208F1C6
:1010C0003001CAB22B460199FFF76BFF00BF601CCD
:1010D000C4B2B442C7DBBDE8FF9F2DE9F04104462E
:1010E0000F461546984600260FE0AA5D434639464E
:1010F0002046FFF756FF04F10800C4B2782C02DD49
:101100000024B81CC7B2701CC6B2A85D0028ECD180
:10111000BDE8F081000C01407E49000856470008F8
:101120002DE9F04180460E461546002731464046DF
:10113000FFF7C9FE00240AE0744A02EB8511085D3E
:101140000121FFF77CFE781CC7B2601CC4B2102CD2
:10115000F2DB701CC1B24046FFF7B5FE00240CE084
:101160006900491C694A02EB4111085D0121FFF742
:1011700066FE781CC7B2601CC4B2102CF0DBBDE860
:10118000F0812DE9F05F06460F4690461C46DDF8DB
:1011900028A04FF0000BE11704EB5171C910A4EB2C
:1011A000C10131B92046E11704EB5171C1F3C70504
:1011B00006E02046E11704EB5171C910491CCDB27D
:1011C0003D4615E029463046FFF77DFEB1460BE06F
:1011D00059460BF1010B1AF801000121FFF72FFE10
:1011E00009F1010000F0FF09C145F1DB681CC5B23F
:1011F000A542E7DBBDE8F09F08B50121082000F01B
:1012000075FE4FF44060ADF8000010208DF803002B
:1012100003208DF8020069463D4800F0ABFB4FF417
:1012200040613B4800F053FC4FF4487000F0E7F990
:101230000021AE20FFF703FE00210846FFF7FFFD67
:1012400000211020FFF7FBFD00214020FFF7F7FDF4
:101250000021B020FFF7F3FD00218120FFF7EFFD13
:101260000021FF20FFF7EBFD0021A120FFF7E7FDA4
:101270000021A620FFF7E3FD0021A820FFF7DFFDF6
:1012800000213F20FFF7DBFD0021C820FFF7D7FD3D
:101290000021D320FFF7D3FD00210846FFF7CFFD43
:1012A0000021D520FFF7CBFD00218020FFF7C7FDEF
:1012B0000021D820FFF7C3FD00210520FFF7BFFD67
:1012C0000021D920FFF7BBFD0021F120FFF7B7FD7A
:1012D0000021DA20FFF7B3FD00211220FFF7AFFD58
:1012E0000021DB20FFF7ABFD00213020FFF7A7FD39
:1012F00000218D20FFF7A3FD00211420FFF79FFDA3
:101300000021AF20FFF79BFD08BD0000400000203A
:10131000000C014008B501211C2000F0E7FD4FF44E
:101320006040ADF8000048208DF803006946504841
:1013300000F020FB0120ADF8000048208DF80300EC
:1013400069464C4800F016FB0320ADF80000482029
:101350008DF803006946484800F00CFB08BD10B545
:10136000044614B10120454908704448007800281B
:1013700054D04FF400413E4800F08FFBD0B1012122
:101380003C4800F08AFBA8B14FF40051384800F007
:1013900084FB78B14FF48041354800F07EFB48B1C2
:1013A0000221354800F079FB20B10121324800F0DC
:1013B00074FB90BB0A2000F022F900202F4908702E
:1013C0004FF400412A4800F068FB08B9012010BD25
:1013D0000121284800F061FB08B90220F7E74FF42B
:1013E0000051234800F059FB08B90320EFE74FF400
:1013F00080411F4800F051FB08B90420E7E70221B3
:101400001D4800F04AFB08B90520E0E701211A4811
:1014100000F043FB48BB0620D9E7FFE74FF400414B
:10142000134800F03AFB01281FD10121114800F0B8
:1014300034FB012819D141030D4800F02EFB01288F
:1014400013D181030A4800F028FB01280DD10221A5
:10145000094800F022FB012807D10121064800F0CD
:101460001CFB012801D1054908700020AFE70000EE
:101470000010014000080140000C0140C0030020A2
:101480000EB5FFF747FF0121084600F02FFD0F21A1
:10149000022000F085FB4FF40040019000208DF801
:1014A00008000C208DF8090001208DF80A0001A821
:1014B00002F0C8F80021084600F072FB01200190FC
:1014C00001A802F0BFF80D21022000F069FB4FF4E3
:1014D0000050019001A802F0B5F80E21022000F0A2
:1014E0005FFB4FF48040019001A802F0ABF80620AA
:1014F0008DF8000002208DF8010003208DF8020015
:1015000001208DF80300684600F06BF928208DF863
:10151000000002208DF801008DF8020001208DF8F6
:101520000300684600F05DF90EBD10B50A2000F01A
:1015300066F80121104800F0B0FA20B90F48007891
:10154000401E0E490870012002F0F3F810BD10B5DE
:101550000A2000F054F84FF40041094800F09DFAC9
:1015600020B906480078401C044908704FF4004038
:1015700002F0DFF810BD000000080140010000206B
:101580000010014010B56FF0040000F074F92E480F
:1015900000682E49B0FBF1F02D490870084600782C
:1015A00000EB4001C1EBC0104FF6FF7101EAC00033
:1015B0002849088010BD0146254A12784A434FF059
:1015C000E0235A6100229A611A46126942F0010230
:1015D0001A6100BF4FF0E022106900F001021AB159
:1015E00000F48032002AF5D04FF0E022126922F098
:1015F00001024FF0E0231A6100229A617047014610
:10160000144A12884A434FF0E0235A6100229A613B
:101610001A46126942F001021A6100BF4FF0E0223F
:10162000106900F001021AB100F48032002AF5D0EE
:101630004FF0E022126922F001024FF0E0231A611C
:1016400000229A61704700002000002000127A00FA
:10165000C2030020C4030020014600BF704700BF42
:10166000494A128802F04002002AF9D0C2B2464B21
:101670001B1D1A80704710B586B00446012144F244
:10168000040000F033FC4FF40070ADF814000320A8
:101690008DF8160018208DF8170005A93B4800F0BA
:1016A00069F94FF48060ADF8140004208DF817003C
:1016B00005A9364800F05EF925208DF800000320CA
:1016C0008DF801008DF8020001208DF803006846B6
:1016D00000F087F801940020ADF80800ADF80A008A
:1016E000ADF80C00ADF810000C20ADF80E0001A90B
:1016F000254801F0B0FB012240F22551224801F0BB
:1017000042FC0121204801F032FC06B010BD10B5AA
:1017100040F225511C4801F01BFD10B31A4801F09E
:1017200097FCC4B21A48008800F40040C8B91848B1
:10173000008800F4804060B10A2C03D000201449D6
:10174000088020E01248008840F4004010490880DA
:1017500019E00D2C06D10E48008840F480400C4959
:10176000088010E00A480088C0F30D0009490C54B5
:1017700007480088401C0649088008460088C7289A
:1017800001DD0020088010BD003801400008014044
:10179000CC0300205C04002009488047094800472A
:1017A000FEE7FEE7FEE7FEE7FEE7FEE7FEE7FEE711
:1017B000FEE7FEE704480549054A064B704700006E
:1017C000070800083101000888050020880B002068
:1017D000880700208807002031490143314A116001
:1017E000704770B5002100230F22C47804B32D4C3C
:1017F000246804F4E064C4F5E064210AC1F1040340
:10180000CA40447804FA03F1847814402143090162
:10181000254C0678A155047804F01F050124AC403E
:1018200005786D11AD0005F1E025C5F8004109E02E
:10183000047804F01F050124AC401C4D0678761195
:1018400045F8264070BD1A4A0A400243154B1B1F3B
:101850001A60704739B1134A121D12680243114BC6
:101860001B1D1A6006E00F4A121D126882430D4BC1
:101870001B1D1A607047042808D14FF0E021096948
:1018800041F004014FF0E022116107E04FF0E02148
:10189000096921F004014FF0E02211617047000056
:1018A0000000FA050CED00E000E400E080E100E05B
:1018B00080FFFF1F10B50446CC48844208D10121A7
:1018C000042000F02DFB0021042000F029FB46E05D
:1018D000C748844208D10121082000F021FB0021E3
:1018E000082000F01DFB3AE0C248844208D10121E3
:1018F000102000F015FB0021102000F011FB2EE05D
:10190000BD48844208D10121202000F009FB0021BC
:10191000202000F005FB22E0B848844208D10121D4
:10192000402000F0FDFA0021402000F0F9FA16E016
:10193000B348844208D10121802000F0F1FA00214F
:10194000802000F0EDFA0AE0AE48844207D1012180
:10195000801500F0E5FA0021A01500F0E1FA10BDB5
:1019600010B50121084600F0DBFA0021012000F04B
:10197000D7FA10BD2DE9F0410246002500260020CF
:1019800000230024002791F803C00CF00F0591F804
:1019900003C00CF0100CBCF1000F03D091F802C092
:1019A0004CEA050591F800C0BCF1000F31D0146875
:1019B00000202BE04FF0010C0CFA00F3B1F800C04E
:1019C0000CEA03069E4220D183004FF00F0C0CFA64
:1019D00003F7BC4305FA03FC4CEA040491F803C086
:1019E000BCF1280F06D14FF0010C0CFA00FCC2F834
:1019F00014C00AE091F803C0BCF1480F05D14FF0C4
:101A0000010C0CFA00FCC2F810C0401C0828D1D30D
:101A10001460B1F800C0BCF1FF0F34DD5468002041
:101A20002EE000F1080C4FF0010808FA0CF3B1F8B1
:101A300000C00CEA03069E4221D183004FF00F0C38
:101A40000CFA03F7BC4305FA03FC4CEA040491F8D2
:101A500003C0BCF1280F05D100F1080C08FA0CF8FE
:101A6000C2F8148091F803C0BCF1480F07D100F10F
:101A7000080C4FF0010808FA0CF8C2F81080401C5E
:101A80000828CED35460BDE8F0814FF6FF71018085
:101A9000022181700421C1707047024600209368C2
:101AA0000B400BB1012000E0002070470146886820
:101AB00080B2704702460020D3680B400BB1012072
:101AC00000E0002070470146C86880B2704701619D
:101AD0007047416170470AB1016100E041617047A0
:101AE000C16070474FF480320A4382618161826134
:101AF00082698269704702460020434B18684FF69E
:101B00008073184040EA021008433F4B186070474A
:101B10003E49C8617047F0B50A4600230024002101
:101B2000002500F00046B6F1004F02D1364EF169B3
:101B300001E0354E7168C0F3034583B200F44016EE
:101B4000B6F5401F08D121F070612F4E766826F05F
:101B500070662D4F7E6012E000F48016B6F5801F8F
:101B600006D1032606FA05F4A14341F0706106E0B0
:101B7000460D360103FA06F6B14341F0706122B119
:101B8000460D360103FA06F6314300F00046B6F181
:101B9000004F02D11C4EF16101E01B4E7160F0BD9F
:101BA00030B500228B071C0F0F2303FA04F2164BEB
:101BB00008338C1053F824309343134C08348D10A1
:101BC00044F8253023468C1053F824308C07240F1A
:101BD00000FA04F423430C4C08348D1044F82530EB
:101BE00030BD0A49DC310860704700000008014040
:101BF000000C014000100140001401400018014099
:101C0000001C014000200140000001400000204273
:101C1000DF48006840F00100DD4908600846406880
:101C2000DC490840DA49486008460068DA4908405B
:101C3000D74908600846006820F4802008600846FC
:101C4000406820F4FE0048604FF41F008860704731
:101C5000CF49096821F48031CD4A116011460968E5
:101C600021F480211160B0F5803F03D0B0F5802FC2
:101C70000ED106E0C649096841F48031C44A1160BA
:101C800007E0C349096841F4A021C14A116000E09E
:101C900000BF00BF704710B501460022002300209E
:101CA0004A11012A02D1BA4C236806E0022A02D165
:101CB000B74C236A01E0B64C636A01F01F020124AD
:101CC00094401C400CB1012000E0002010BD38B54C
:101CD000002000900024002500BF3120FFF7DBFF2B
:101CE00005460098401C00900098B0F5A06F01D008
:101CF000002DF2D03120FFF7CEFF08B1012400E023
:101D00000024204638BD01460020A14A106820F07A
:101D1000F80040EAC10010607047A04908607047B1
:101D2000024600209A4B586820F47C1042EA0103D6
:101D30001843974B586070479849086670470146AA
:101D40000020934A506820F0030008435060704719
:101D50008F48406800F00C007047014600208C4A14
:101D6000506820F0F00008435060704701460020A2
:101D7000874A506820F4E06008435060704701468D
:101D80000020834A506820F4605040EAC10050604F
:101D9000704729B17E4A527A02437D4B5A7204E061
:101DA0007B4A527A82437A4B5A7270477B49D831C8
:101DB0000860704701460020754A506820F4404092
:101DC0000843506070470021714A20321170704AF8
:101DD00082F82010012802D004280AD104E0012151
:101DE0006B4A2032117005E00521694A20321170DA
:101DF00000E000BF00BF7047694908607047644950
:101E0000096A0143624A11627047654944390860B2
:101E1000704730B500210022002400235C4D6D681E
:101E200005F00C0121B1042905D0082923D105E0D2
:101E30005C4D056022E05B4D05601FE0544D6D6810
:101E400005F47012524D6D6805F48034022505EBDF
:101E500092421CB9544D554305600BE04C4D6D68E2
:101E600005F400351DB1504D5543056002E04D4D60
:101E70005543056002E04B4D056000BF00BF444D77
:101E80006D6805F0F0010909484D6B5C0568DD409F
:101E900045603F4D6D6805F4E061090A434D6B5C98
:101EA0004568DD4085603A4D6D6805F46051C90AAA
:101EB0003E4D6B5C4568DD40C560354D6D6805F491
:101EC0004041890B3A4D6B5CC568B5FBF3F5056184
:101ED00030BD29B12E4A526902432D4B5A6104E0AC
:101EE0002B4A526982432A4B5A61704729B1284ACA
:101EF00092690243264B9A6104E0254A9269824323
:101F0000234B9A61704729B1214AD2690243204B81
:101F1000DA6104E01E4AD26982431D4BDA617047E0
:101F200029B11B4AD2680243194BDA6004E0184A0F
:101F3000D2688243164BDA60704729B1144A12699D
:101F40000243134B1A6104E0114A12698243104B99
:101F50001A61704712494039086070470F49C864D8
:101F600070470B49C87170470948406A40F080705B
:101F700007494862704701460020054A92680A40B6
:101F80000AB1012000E000207047014988727047C3
:101F9000001002400000FFF8FFFFF6FE0000424282
:101FA0008004424200127A0000093D00CE03002066
:101FB000DE03002010B50446FE48844208D101210A
:101FC000C014FFF7ADFF0021E014FFF7A9FFC4E044
:101FD000B4F1804F08D101210846FFF7AEFF002180
:101FE0000120FFF7AAFFB8E0F348844208D101219D
:101FF0000220FFF7A2FF00210220FFF79EFFACE0C6
:10200000EE48844208D101210420FFF796FF002109
:102010000420FFF792FFA0E0E948844208D10121A3
:102020000820FFF78AFF00210820FFF786FF94E0D1
:10203000E448844208D101211020FFF77EFF0021EF
:102040001020FFF77AFF88E0DF48844208D10121A1
:102050002020FFF772FF00212020FFF76EFF7CE0B9
:10206000DA48844208D101214014FFF759FF0021CA
:102070006014FFF755FF70E0D548844209D1012173
:10208000C804FFF74DFF00214FF40020FFF748FF81
:1020900063E0D048844209D101210805FFF740FFE1
:1020A00000214FF48010FFF73BFF56E0CA488442FE
:1020B00009D101214805FFF733FF00214FF400103B
:1020C000FFF72EFF49E0C548844208D10121402096
:1020D000FFF733FF00214020FFF72FFF3DE0C0480E
:1020E000844208D101218020FFF727FF00218020B2
:1020F000FFF723FF31E0BB48844208D1012180155E
:10210000FFF71BFF0021A015FFF717FF25E0B648DA
:10211000844209D101210804FFF702FF00214FF496
:102120008030FFF7FDFE18E0B048844209D101215C
:102130004804FFF7F5FE00214FF40030FFF7F0FEF2
:102140000BE0AB48844208D101218804FFF7E8FE88
:1021500000214FF48020FFF7E3FE10BD002202882B
:10216000944B98420ED0994B98420BD0B0F1804FCF
:1021700008D0914B984205D0904B984202D0904B9A
:10218000984204D14FF68F731A404B881A438D4BF7
:10219000984207D08C4B984204D04FF6FF431A4028
:1021A000CB881A4302808B8883850B880385814BFB
:1021B00098420BD0854B984208D08B4B984205D063
:1021C0008A4B984202D08A4B984201D10B7A0386FF
:1021D00001238382704770B5002400220023058C00
:1021E0004FF6FE7635400584028C8388048B4FF6CB
:1021F0008F752C40B51E2C400D882C43751E2A402F
:102200000D892A434D882A436A4DA8420BD06F4D51
:10221000A84208D0744DA84205D0744DA84202D0FF
:10222000734DA84213D14FF6F7752A404D892A43C2
:102230004FF6FB752A408D882A434FF6FF652B40E9
:102240004FF6FF552B408D892B43CD892B4383803F
:102250000483CD888586028470BD70B50024002279
:102260000023058C4FF6EF7635400584028C838879
:10227000048B48F6FF752C404FF6FF452C400D8827
:102280004FF6FF7606EA05252C434FF6DF752A4008
:102290000D8906EA05152A434D8806EA05152A43E5
:1022A000444DA84202D0494DA8421DD14FF67F753A
:1022B0002A404D894FF6FF7606EA05152A434FF668
:1022C000BF752A408D8806EA05152A434FF6FF356B
:1022D0002B404FF2FF752B408D8906EA85052B4375
:1022E000CD8906EA85052B4383800483CD88058745
:1022F000028470BD70B5002400220023058C4FF6C7
:10230000FF6635400584028C8388848B4FF68F7579
:102310002C404FF6FC752C400D882C434FF6FF5592
:102320002A400D894FF6FF7606EA05252A434D8897
:1023300006EA05252A431F4DA84202D0234DA84294
:102340001DD14FF2FF752A404D894FF6FF7606EA00
:1023500005252A434FF6FF352A408D8806EA0525D4
:102360002A434EF6FF752B404DF6FF752B408D89A5
:1023700006EA05152B43CD8906EA05152B43838014
:102380008483CD888587028470BD70B500220023C8
:102390000024058C4EF6FF7635400584038C848836
:1023A000828B48F6FF752A404FF6FF452A400D887C
:1023B00020E00000002C0140000400400008004024
:1023C000000C0040001000400014004000340140A8
:1023D000004C0140005001400054014000180040F2
:1023E000001C00400020004000400140004401402B
:1023F000004801404FF6FF7606EA05252A434DF6D0
:10240000FF752B400D8906EA05352B434D8806EAFA
:1024100005352B43FA4DA84202D0FA4DA84208D107
:102420004BF6FF752C408D894FF6FF7606EA851531
:102430002C4384808283CD88A0F84050038470BDF3
:10244000828B4FF2FF331A408283828B4FF6FF73E9
:1024500003EA01231A4382837047F0B50C46154600
:10246000002200210026078C4EF6FF7C07EA0C07AD
:102470000784828B018C4FF6FF7707EA043640F61B
:10248000FF473A404FF6FF7707EA05273A434FF6F2
:10249000FF7707EA03373A43D94FB8420ED0D94FF6
:1024A000B8420BD0B0F1804F08D0D74FB84205D01A
:1024B000D64FB84202D0D64FB84206D14DF6FF777C
:1024C000394046F48057394305E047F6FF57394015
:1024D00044F48057394382830184F0BD828B4FF6E8
:1024E000F3731A408283828B0A4382837047F0B56C
:1024F0000C461546002200210026078C4FF6FF6C83
:1025000007EA0C070784828B018C4FF6FF7707EAF6
:1025100004264FF60C773A404FF6FF7707EA031789
:102520002F433A43B64FB8420ED0B64FB8420BD005
:10253000B0F1804F08D0B44FB84205D0B34FB84285
:1025400002D0B34FB84206D14FF6FF57394046F498
:102550008077394305E04FF2FF57394044F48077E4
:10256000394382830184F0BD028B4FF2FF331A405E
:102570000283028B4FF6FF7303EA01231A4302839F
:102580007047F0B50C461546002200210026078C46
:102590004FF6EF7C07EA0C070784028B018C4FF69D
:1025A000FF7707EA041640F6FF473A404FF6FF77F9
:1025B00007EA03373A434FF6FF7707EA05273A431E
:1025C0008F4FB8420ED08F4FB8420BD0B0F1804F32
:1025D00008D08D4FB84205D08C4FB84202D08C4FF6
:1025E000B84206D14FF6DF77394046F0100739433D
:1025F00005E04FF65F77394044F010073943028316
:102600000184F0BD028B4FF6F3731A400283028BF4
:102610000A4302837047F0B50C461546002200219C
:10262000068C4FF6FE773E400684028B018C4FF6F7
:102630000C7632407E1C06EA03162E433243704E5F
:10264000B0420ED06F4EB0420BD0B0F1804F08D0E8
:102650006D4EB04205D06D4EB04202D06C4EB042CD
:1026600006D14FF6FD76314044F00106314305E0D6
:102670004FF6F576314044F0010631430283018480
:10268000F0BD70B505460C465D4885420ED05D48EC
:1026900085420BD0B5F1804F08D05B48854205D00C
:1026A0005A48854202D05A48854200D100E000BF16
:1026B000208850B92389A28861882846FFF7ABFF9C
:1026C000E1882846FFF79EFF25E0208804280AD1EC
:1026D0002389A28861882846FFF753FFE1882846AE
:1026E000FFF742FF17E0208808280AD12389A28833
:1026F00061882846FFF7FBFEE1882846FFF7EEFEDB
:1027000009E02389A28861882846FFF7A6FEE188B0
:102710002846FFF795FE70BD2DE9F04105460C46B1
:1027200000260127608808B9022600E00026A0885C
:10273000012801D1022700E001272088A0B92389C0
:10274000A28861882846FFF766FFE1882846FFF7E0
:1027500059FF23893A4631462846FFF712FFE188A0
:102760002846FFF701FF13E02389A28861882846E5
:10277000FFF707FFE1882846FFF7F6FE23893A4670
:1027800031462846FFF747FFE1882846FFF73AFF22
:10279000BDE8F0810A884B881A438B881A43CB889E
:1027A0001A430B891A434B891A438B891A43A0F8A1
:1027B000442070474FF6FF71818000210180C18065
:1027C0004180017270470021018041808180C18079
:1027D000018141818181C181704700210180418057
:1027E000012181800021C180018170470021018089
:1027F00041808180C18001814181818170470000D9
:10280000002C01400034014000040040000800405A
:10281000000C004021B1028842F00102028004E075
:1028200002884FF6FE731A400280704731B1B0F84B
:10283000442042F40042A0F8442005E0B0F84420CF
:10284000C2F30E02A0F8442070471AB183890B43EB
:10285000838102E083898B43838170478182704743
:1028600041EA0203A0F8483070471AB183890B434C
:10287000838102E083898B438381704701894FF60E
:10288000F8721140018170470A46002101894FF614
:102890008F73194011430181704730B504460D46CE
:1028A00029462046FFF7F0FF208940F007002081ED
:1028B00030BD2DE9F04104460D4616461F46602DF9
:1028C00006D13B46012231462046FFF75AFE05E07D
:1028D0003B46012231462046FFF79DFE2946204611
:1028E000FFF7D2FF208940F007002081BDE8F0818A
:1028F00030B50C4600210189C9B24FF6FF7505EAD3
:102900000325154325432943018130BD2DE9F041BD
:1029100005460E4617469846002443463A46314639
:102920002846FFF7E5FF2C894FF6F870044044F085
:1029300007044FF68F70044044F070042C81BDE80A
:10294000F081F0B504460D4616461F463B4632461A
:1029500029462046FFF7CCFF208940F480402081A3
:10296000F0BD0185828270470A46002101884FF63A
:102970008F731940114301807047F0B50C4615461E
:102980001E460021002200230189028B038C4FF692
:10299000F877394021434FF6FC473A4040F201179F
:1029A0003A434FF6DD773B404FF6FF7707EA0617CD
:1029B0002F433B43018102830384F0BD0A4600217B
:1029C000018B4FF68F7319401143018370470A46FC
:1029D0000021018B48F6FF7319404FF6FF7303EA9D
:1029E00002231943018370470A460021818B4FF669
:1029F0008F7319401143818370470A460021818BF0
:102A000048F6FF7319404FF6FF7303EA0223194398
:102A10008183704721B1028842F08002028004E085
:102A200002884FF67F731A400280704721B1828876
:102A300042F00402828004E082884FF6FB731A4061
:102A40008280704721B1828842F00802828004E0CF
:102A500082884FF6F7731A408280704721B18288CE
:102A600042F00102828004E082884FF6FE731A4031
:102A7000828070470A460021018B4FF6F773194098
:102A80001143018370470A460021018B4FF2FF7307
:102A900019404FF6FF7303EA02231943018370477D
:102AA0000A460021818B4FF6F77319401143818349
:102AB00070470A460021818B4FF2FF7319404FF691
:102AC000FF7303EA02231943818370470A460021FA
:102AD000018B4FF6FB7319401143018370470A467F
:102AE0000021018B4FF6FF3319404FF6FF7303EAC5
:102AF00002231943018370470A460021818B4FF658
:102B0000FB7319401143818370470A460021818B72
:102B10004FF6FF3319404FF6FF7303EA02231943C0
:102B2000818370470A460021018B4FF67F7319405D
:102B30001143018370470A460021018BC1F30E0146
:102B40004FF6FF7303EA02231943018370470A46D5
:102B50000021818B4FF67F731940114381837047A9
:102B60000A460021818BC1F30E014FF6FF7303EA81
:102B700002231943818370470A460021018C4FF6D6
:102B8000FD7319401143018470470A460021018CEE
:102B90004FF6F77319401143018470470A4600212C
:102BA000018C4FF6DF7319404FF6FF7303EA0213EF
:102BB0001943018470470A460021018C4FF67F7348
:102BC00019404FF6FF7303EA02131943018470475B
:102BD0000A460021018C4FF6FF5319404FF6FF7350
:102BE00003EA02231943018470470A460021018C3D
:102BF0004FF2FF7319404FF6FF7303EA02231943A4
:102C0000018470470A460021018C4DF6FF7319407C
:102C10004FF6FF7303EA023319430184704730B55E
:102C2000002301248C40A3B2048C9C430484048CB4
:102C300002FA01F5ADB22C43048430BD30B5002357
:102C400004248C40A3B2048C9C430484048C02FAB8
:102C500001F5ADB22C43048430BD70B503460020AD
:102C600000241846183001258D40ACB21D8CA543B8
:102C70001D8409B1082909D100EB6100056825F020
:102C8000700505600568154305600EE00D1FC5F36E
:102C90004E052844056825F4E045056005684FF6B3
:102CA000FF7606EA02263543056070BD21B1028831
:102CB00042F00202028004E002884FF6FD731A40DF
:102CC0000280704721B1028842F00402028004E0D1
:102CD00002884FF6FB731A400280704721B1828848
:102CE00042F08002828004E082884FF67F731A40AF
:102CF0008280704702884FF6F7731A40028002887C
:102D00000A430280704782884FF68F731A40828090
:102D100082880A438280704702894FF6F8731A400E
:102D2000028102890A430281704702894FF67F734C
:102D30001A40028102890A430281704781847047E8
:102D4000818570478186704701877047818770470A
:102D5000A0F84010704702884FF6FF431A400280E7
:102D600002880A43028070470146888E70470146F8
:102D7000088F70470146888F70470146B1F84000C0
:102D800070470146888C70470146088D704702469F
:102D90000020138A0B400BB1012000E00020704797
:102DA000CA430282704730B5024600200023002447
:102DB000158A05EA0103958905EA010413B10CB1EE
:102DC000012000E0002030BDCA43028270470000AD
:102DD00010B50446FB48844209D101218803FFF75E
:102DE0009FF800214FF48040FFF79AF832E0F64850
:102DF000844209D101214804FFF79FF800214FF4D4
:102E00000030FFF79AF825E0F048844209D101210B
:102E10008804FFF792F800214FF48020FFF78DF827
:102E200018E0EB48844209D10121C804FFF785F876
:102E300000214FF40020FFF780F80BE0E5488442C2
:102E400008D101210805FFF778F800214FF4801020
:102E5000FFF773F810BD2DE9F04786B005460E4622
:102E60000024A24600BFA1460027B08900B100BFE0
:102E70002F462C8A4CF6FF700440F08804432C82C5
:102E8000AC894EF6F3100440B0883189084371894B
:102E900008430443AC81AC8A4FF6FF400440B0893C
:102EA0000443AC8201A8FEF7B4FFC648874202D1B2
:102EB000DDF810A001E0DDF80CA0A88900F40040C6
:102EC00040B10AEBCA0000EB0A1031684900B0FBC0
:102ED000F1F807E00AEBCA0000EB0A10316889003C
:102EE000B0FBF1F86420B8FBF0F004012009642184
:102EF00001FB1089A88900F4004040B1322000EBAA
:102F0000C900B0FBF1F000F00700044308E03220F4
:102F100000EB09106421B0FBF1F000F00F00044356
:102F20002C8106B0BDE8F0874FF4165101600021F6
:102F30008180C18001810C21418100218181704704
:102F400010B502460020108A4FF2FF0318400B888C
:102F50004C8823438C882343CC8823431843108216
:102F600010BD0021018041808180C180704721B166
:102F7000828942F40052828104E082894DF6FF7317
:102F80001A4082817047F0B50346002400260025D0
:102F9000002040F66A17B94200D100BF1846C1F3BD
:102FA000421401F01F06012707FA06F5012C01D192
:102FB0000C3004E0022C01D1103000E014301AB1C2
:102FC00007682F43076002E00768AF430760F0BD62
:102FD0001AB1838A0B43838202E0838A8B43838204
:102FE0007047028A4FF6F0731A400282028A0A433F
:102FF0000282704782894FF2FF731A408281828970
:103000000A438281704721B1828942F002028281A3
:1030100004E082894FF6FD731A4082817047028A6C
:103020004FF6DF731A400282028A0A430282704717
:1030300021B1028A42F48042028204E0028A4BF605
:10304000FF731A4002827047C1F308028280704702
:1030500001468888C0F308007047818941F001016A
:1030600081817047028BD2B20283028B42EA012235
:1030700002837047028B02F47F420283028B0A4371
:103080000283704721B1828A42F02002828204E0EA
:10309000828A4FF6DF731A408282704721B1828A9A
:1030A00042F01002828204E0828A4FF6EF731A40E7
:1030B0008282704721B1828A42F00802828204E053
:1030C000828A4FF6F7731A408282704721B1828953
:1030D00042F40042828103E08289C2F30E028281BF
:1030E000704721B1828A42F40062828204E0828ABF
:1030F0004FF2FF731A4082827047828A4FF6FB7349
:103100001A408282828A0A438282704721B1828A6F
:1031100042F00202828204E0828A4FF6FD731A4076
:103120008282704702460020B1F5007F00D100BFC7
:1031300013880B400BB1012000E00020704701F420
:103140000072B2F5007F00D100BFCA430280704711
:1031500070B50246002400230025002040F66A16C0
:10316000B14200D100BFC1F3421501F01F03012697
:1031700006FA03F3012D02D19689334006E0022DB1
:1031800002D1168A334001E0968A33400C120126A0
:1031900006FA04F41688344013B10CB1012000E0A3
:1031A000002070BD10B50022002340F66A14A14231
:1031B00000D100BF0A1201249440A3B2DC43048072
:1031C00010BD0000003801400044004000480040AD
:1031D000004C00400050004010B50446FA488442BC
:1031E00008D101214015FEF79BFE00216015FEF776
:1031F00097FE17E0F548844208D101210015FEF73B
:103200008FFE00212015FEF78BFE0BE0F048844274
:1032100008D10121C803FEF783FE00214FF40040CE
:10322000FEF77EFE10BD30B5024600200023506838
:10323000E84C20400D790C6844EA05242043506096
:103240009068E54C2040D1E902542C434D7944EA82
:10325000450420439060D06A20F470000C7C641E0A
:10326000E4B2234340EA0350D06230BD0021016044
:10327000017141718160C16001210174704721B108
:10328000826842F00102826003E0826822F001025B
:103290008260704721B1826842F48072826003E0EC
:1032A000826822F480728260704710B50023CBB22E
:1032B0001AB144681C43446002E044689C43446083
:1032C00010BD816841F0080181607047014600200F
:1032D0008A6802F008020AB1012000E0002070476D
:1032E000816841F0040181607047014600208A68CE
:1032F00002F004020AB1012000E00020704721B171
:10330000826842F4A002826003E0826822F4A00294
:1033100082607047014600208A6802F480020AB188
:10332000012000E00020704710B50A46002100236C
:10333000416821F46041531E41EA4331416010BDB0
:1033400021B1426842F40062426003E0426822F424
:10335000006242607047F0B504460D46002000212F
:10336000092D11DDE068A5F10A0606EB46070726E0
:1033700006FA07F18843A5F10A0606EB460603FAAA
:1033800006F10843E0600CE0206905EB45070726DD
:1033900006FA07F1884305EB450603FA06F10843F0
:1033A0002061072A0FDA606B561E06EB86071F2680
:1033B00006FA07F18843561E06EB860605FA06F163
:1033C0000843606322E00D2A0FDA206BD61F06EB5C
:1033D00086071F2606FA07F18843D61F06EB8606E6
:1033E00005FA06F10843206310E0E06AA2F10D0639
:1033F00006EB86071F2606FA07F18843A2F10D06A1
:1034000006EB860605FA06F10843E062F0BD21B13D
:10341000826842F48012826003E0826822F48012A3
:10342000826070470146C86C80B2704766484C3075
:103430000068704721B1426842F48062426003E054
:10344000426822F480624260704721B1426842F4CF
:103450008052426003E0426822F48052426070472A
:103460000A460021816821F4E041114381607047E0
:1034700021B1826842F40042826003E0826822F453
:1034800000428260704721B1826842F40212826079
:1034900003E0826822F40212826070470146002035
:1034A0008A6802F400120AB1012000E0002070478F
:1034B000F0B504461546002000220026092911DD3A
:1034C000E068A1F10A0707EB470C072707FA0CF29F
:1034D0009043A1F10A0707EB470703FA07F21043ED
:1034E000E0600CE0206901EB410C072707FA0CF2C1
:1034F000904301EB410703FA07F210432061A06BF0
:10350000C0F30156EF1C06F1010CA7EB0C0707EB0B
:10351000870C1F2707FA0CF29043EF1C06F1010CF1
:10352000A7EB0C0707EB870701FA07F21043A0632C
:10353000F0BD10B50A4600210023816B21F4401133
:10354000531E41EA0351816310BD08B50023009367
:103550000090009B0B440093009B1A6008BD08B5C7
:10356000024600200090009201F12800009B1844C0
:1035700000900098006880B208BD0A4600214168AA
:10358000164B194011434160704741628262704797
:103590000A460021416821F01F0111434160704734
:1035A00040B109490831096841F40001064A08326E
:1035B000116007E004490831096821F40001024A5A
:1035C00008321160704700000024014000280140CB
:1035D000003C0140FFFEF0FFFDF7F1FFFFFD3FFF64
:1035E0000246002013680B400BB1012000E00020D0
:1035F0007047CA430260704770B50246002000233E
:1036000000240B125568CEB205EA060415681D4069
:1036100015B10CB1012000E0002070BD00220A129B
:10362000D343036070470000002044490860091D2F
:103630000860091D0860091D086041483F491431B0
:103640000860704700213D498279002A3AD00A4635
:10365000126803689A430B461A600A1D12680368D1
:103660009A430B1D1A60027911440A6803681A43D1
:103670000A60324A0832126803689A432F4B0833B3
:103680001A601A1D126803689A432C4B0C331A6097
:103690004279102A0ED11A1F126803681A43274B69
:1036A00008331A601A1D126803681A43234B0C333F
:1036B0001A600DE02149427911440A6803681A43EF
:1036C0000A6005E0027911440A6803689A430A60B7
:1036D00070470021016001710C214171002181714D
:1036E00070471649103109680143144A10321160BD
:1036F000704701460020114A143212680A400AB18C
:10370000012000E0002070470C4914310860704728
:10371000014600200022094B1B6803EA0102074B07
:1037200014331B680B4013B10AB1012000E00020E4
:1037300070470249143108607047000000040140DE
:10374000FFFF0F00F0B5059D09240160C260836092
:1037500000264660856304E0002700F1100646F865
:103760002470261EA4F10107BCB2F5D1F0BD2DE9ED
:10377000F0470446884600254146206800F076FF61
:103780000646A16B606800F03FFF01D2A06B60604D
:10379000D4E9011000F06CFE81463146E06800F08B
:1037A00067FE8246494600F097FC0746616B6068F9
:1037B00000F05CFF8146314600F08EFC606008E05E
:1037C00004F1100050F82520691C40F82120681CE5
:1037D00085B2092DF4DB26613846BDE8F0877047D5
:1037E0007047704770477047754600F02BF8AE463B
:1037F00005006946534620F00700854618B020B5FD
:10380000FDF7D8FFBDE820404FF000064FF000075D
:103810004FF000084FF0000B21F00701AC46ACE878
:10382000C009ACE8C009ACE8C009ACE8C0098D46E5
:10383000704710B50446AFF300802046BDE8104045
:10384000FCF7DDBC004870472405002021F0004251
:10385000A2F16052B2F5801F01F0004328BFD2F1FF
:103860007F6C0BD95FEA001C43EAC20242EB507046
:1038700018BF704728BF20F001007047B2F5801FC5
:10388000BCBF184670474FEA410C1CF5001F02D21E
:10389000084600F0B4BE70B500F0B4FA000000892C
:1038A000FFF7F6BF4FF00040A0F580007047000022
:1038B00010B591EA030F48BF83F0004300F1FE8288
:1038C000841A71EB030C05D2121943EB0C03001B95
:1038D00061EB0C01DFF824E14FEA1154A4EB135C17
:1038E0001EEA430F18BF9EEA445F73D023EA0E031B
:1038F000DCF1200E21EA045143F4801332D322FA82
:103900000CFE10EB0E0023FA0CFE41EB0E01CCF185
:10391000200E03FA0EFE10EB0E0051F10001B1F57E
:10392000801FCCF1200E32D201EB045112FA0EF2BC
:10393000BDE8104058BF7047401C38BF5FEA4202E4
:1039400018BF7047002814BF20F0010041F10001AA
:103950004FEA410313F5001F38BF7047A1F1C04182
:1039600000F09EBA012A43EB0302ACF1200CDCF11B
:103970001F0E32BF4FF0000E23FA0CF310EB0300C2
:1039800041EB0451B4EB115FD0D0A1EB045101F530
:10399000801149085FEA300001EB04510ED350F169
:1039A000000038BF12FA0EFE08D1BDE81040C9E78A
:1039B000401C38BF5FEA4202CAD1C3E7BDE81040ED
:1039C0004FEA410313F5001F38BF7047A1F1C04112
:1039D00000F066BA9EEA445F08D011EA5E0FBDE8C7
:1039E000104004BF01F0004100207047BDE81040C6
:1039F00070B500F007FA00BF64FBBE3E0000E0FFB8
:103A00002DE9C04130B4DFF8A0C23CEA111418BF60
:103A10003CEA131400F0EC8081EA03051CEA11145F
:103A200044EAD57418BF1CEA131500F0C780A4EB54
:103A300005044FF0004545EAC12145EAC32341EAA8
:103A4000505143EA525304F17F74994204F5003413
:103A50004FEAC0204FEAC22208BF904200F09C808B
:103A60004FEA13650FF24016765D4FEA134506FBE9
:103A700005F7C7F1807706FB07F74FEAD737A7FBB3
:103A800003687642C8F58038A7FB06CE38BFA8F198
:103A9000010807FB08E64FF0000EA6FB028CE6FBD0
:103AA00003CEDCF1000CCEF1004E38BFAEF1010EBA
:103AB000A6FB0C584FF000074FF00005E6FB0E8701
:103AC000A1FB08C6A0FB07CE16EB0E0645F10005CC
:103AD000E1FB076515F1E04E7EBFA4F580345FEA97
:103AE00046066D4116F1800745F100054FEA17279C
:103AF0004FEA066647EA0567A6F1DE46B6F1805F43
:103B00004FEA15251FD9384624F0010C05EBC47186
:103B1000BCF1FE6F01EB0C1102D8F0BCBDE80081D6
:103B200024425CBF01F5801E9EEAC47F02D4F0BC33
:103B3000BDE80081244238D4F0BCA1F1C041BDE809
:103B4000004100F0ADB94FEAD22242EA43524FEAB7
:103B5000D323A7FB02864FEAD02040EA415007FB5F
:103B600003661EEA0E0F4FEAD12105FB026658BF1D
:103B7000A6EB0056B6EB00564FEA520E4EEAC37E55
:103B800018EB0E0E56EB530EBDD518EB02085E4136
:103B90007F1C55F10005B6E74FF480154FF0000784
:103BA0004FF000064FF00008ADE7F0BC4FF000000A
:103BB00001F1C04101F00041BDE8008111EA0C1F94
:103BC0000CEA131500D00CE013EA0C1F00F025805E
:103BD0004FF00000F0BC81EA030101F00041BDE8B4
:103BE0000081F0BCBDE8004181EA030100F058B952
:103BF000F0BCBDE8004170B500F004F9097EFC3E60
:103C000000F007B881EA03014FF0000001F0004125
:103C1000704781EA030100F043B9F0BCBDE8004100
:103C20004FF0000021497047FFFDFBF9F7F5F4F272
:103C3000F0EEEDEBE9E8E6E4E3E1E0DEDDDBDAD847
:103C4000D7D5D4D3D1D0CFCDCCCBCAC8C7C6C5C4A5
:103C5000C2C1C0BFBEBDBCBBBAB9B8B7B6B5B4B3BC
:103C6000B2B1B0AFAEADACABAAA9A8A8A7A6A5A4A7
:103C7000A3A3A2A1A09F9F9E9D9C9C9B9A9999986B
:103C80009797969595949393929191908F8F8E8E0E
:103C90008D8C8C8B8B8A898988888787868585849B
:103CA00084838382828181800000FF070000F87F87
:103CB000DFF848C170B51CEA111E1EBF1CEA1315BF
:103CC0009EEA0C0F95EA0C0F00F06F8081EA030466
:103CD00023EA4C134EEAD47E21EA4C1141F48011C0
:103CE00043F48013AE44A1FB024CA0FB0365AEF18C
:103CF0007F7E361955EB0C05A1FB034C4CF10003FC
:103D0000A0FB021C16EB0C06654153F100030942AF
:103D100018BF46F0010613F4007F0BD14FEA0331C0
:103D20004FEA0530340341EA155140EA16506FF06E
:103D300003020AE04FEAC3214FEAC520F40241EA38
:103D4000555140EA56506FF0020202EB2E4201EB51
:103D5000025585EACE710AD05FEA440C18BF24F000
:103D6000004450F1000041F1000120EAD47040F21B
:103D7000FE7C624500D270BDA84214BF4FF0804463
:103D80004FF04044002E08BF0024BEF1806FA8BF52
:103D9000A1F1C041BDE8704080F282804FF0000088
:103DA00001F1C04101F0004170479EEA0C0F0CEA9E
:103DB000131518BF95EA0C0F06D04FF0000081EAEA
:103DC000030E0EF0004170BD00F01CF88900013EAA
:103DD00000F007B800F009B84FEA430C5FEA5C5CFA
:103DE00008D081EA030100F05BB84FEA410C5FEABA
:103DF0005C5CF6D14FF00000014970470000FF07FE
:103E00000000F87F0EF1020E2EF0030E5EF8046B38
:103E1000364205D4012A43EB030515F5001F12D8DD
:103E2000012841EB010C1CF5001F0CD80ED14FEA04
:103E3000D17C15F5001F0CEB4C0C0CF1020C08BFEB
:103E40004CEBD37C04E04FF0080C01E04FEAD37C4C
:103E50000CEB4C0526FA05F606F00706B6F1040C45
:103E600006D20EEB860CBDE870404CF0010C6047AA
:103E7000DFE80CF0090B02024FF000414FF00000A8
:103E8000A1F5002170BD19461046012851EB01042F
:103E900018BFD4F5001484BF002001F0004170BDAC
:103EA0000808A0F500114FEA3101704710B591EAFA
:103EB000030F48BF83F000433FF502AD841A71EB56
:103EC000030C07D212198CF0004C43EB0C03001BBF
:103ED00061EB0C01DFF8A4E14FEA1154A4EB135C91
:103EE0001EEA430F18BF9EEA445F00F0B08023EA49
:103EF0006E03524221EA0451C3EB6E0338BF5B1ECE
:103F0000DCF1200E25D322FA0CFE10EB0E0043FA52
:103F10000CFE41EB0E01CCF1200E03FA0EFE10EB6D
:103F20000E0051F10001CCF1200E29D412FA0EF24C
:103F300001EB0451BDE8104058BF7047401C1CBF46
:103F4000B2F1004F704700280CBF491C20F001005F
:103F5000704712EB020E43EB030218BF4FF0010E45
:103F60004EEA4202ACF1200CDCF11E0E54D943FAA9
:103F70000CFE10EB0E0051F1FF31CCF11E0ED5D529
:103F80000EF1010E12FA0EFE404141EB010101EB70
:103F9000445C5FEA5C5C10D910EBDE7001EB04510D
:103FA00038BFBEF1004FBDE8104018BF7047002871
:103FB0000CBF491C20F00100704730D24FEAD42CCE
:103FC00011F5001124F400641BD0B1FA81F20B3A10
:103FD000A41AA41ED2F12003914030FA03F319432E
:103FE000904001EBCC71002C01EB0451BDE8104076
:103FF000A8BF704701F1C0414FF0000001F000413F
:104000007047B0FA80F310FA03F100D110BDE41A42
:10401000173C4805C90AE4E701EB045110BD4910FB
:1040200001EB0451BDE810404FEA300002E04FF0D0
:10403000000170474A0008BF0042F8D0B2F5001FE7
:1040400028BF704701F000414FF0000070479EEA22
:10405000445F07D011EA5E0FBDE8104004BF0021A5
:1040600000207047BDE8104070B5FFF7CBFE00BFE1
:1040700040DFF63E83F00041104670470000E0FF4D
:1040800043004FEAD30C4FEA3C0C43401FBF4007AC
:104090000CF1605113F0FE4F70471CF0006F03D11C
:1040A00000200CF0004170470CF0004343EA5070D0
:1040B00010B540EACC0000F05CFA00BF00000092AE
:1040C0004FEA0001FFF7ECBE4FF000414FF0000057
:1040D000A1F500217047000090EA010F48BF81F070
:1040E000004100F1CA82421A3CBF801A89184FEA87
:1040F000D0524FF07F4C1CEA410FA2EBD15318BFB6
:104100009CEA026F00F03B804FF0004C4CEA00202C
:104110004CEA012121FA03FC10EB0C0C1ED202F137
:10412000FF325FEA1C2040EBC25038BF70471CF0E2
:104130007F0F4FEA400C18BFBCF17F4F38BF70476C
:10414000C3F12003994008BF20F00100BCF17F4F6C
:1041500038BF7047A0F1C04000F051BA4FEA3C00B0
:10416000000A40EBC25028BF1CF0FF0F4FEA400C82
:10417000E6D018BFBCF17F4F38BF7047EAE79CEA32
:10418000026F05D010EA5C0F08BF00F000407047D6
:1041900010B500F0EEF900BF64FBBE3E401058BF02
:1041A000C0F14040491058BFC1F140418142EFF396
:1041B000008070474FF47F0C1CEAD0121EBF1CEA2F
:1041C000D11392EA0C0F93EA0C0F00F0858090EA6D
:1041D000010F48BF42F4807240F4000C41F400002B
:1041E0002CF07F4120F07F4000B58142A2EB03021A
:1041F0000FF2081CACEB504EC0F100009EF800E03E
:104200004FEA4E0E00FB0EFC38BF49004FEA2C1C53
:1042100002F5FA020CFB0EF34FEACE1E4FEA112C08
:104220004FEAC1210EEB635E42EB22420EFB0CFC17
:104230004FEA1C5300FB03114FEA112C4FEA0131E6
:104240000EFB0CFC4FEADC4C00FB0C11C14228BFFA
:1042500009184CEB03335DF804EB10EB410143EB21
:10426000C250B2F57C0F38BF704729D512F0F00F5D
:104270001CBF00F1C04000F0004070470081828305
:104280008485868788898B8C8D8E8F919293959665
:1042900097999A9C9D9FA0A2A3A5A7A8AAACAEB0EF
:1042A000B2B3B5B7B9BCBEC0C2C5C7C9CCCED1D4F4
:1042B000D7D9DCDFE2E6E9ECF0F3F7FAFE00000024
:1042C0004FEA400C0CF1807CBCF17E4F28BF704758
:1042D000B0F1C04000F093B990EA010F0CEAD1139D
:1042E00048BF42F48072624538BF634507D213F479
:1042F0007F0F16D080EA010000F00040704710B533
:1043000000F037F9097EFC3E00F005B880EA0100B4
:1043100000F00040704780EA010000F0004000F02B
:104320006EB912F47F0F04BF0248704780EA0100A3
:1043300000F065B90000C07F41000B0ED3F19E0272
:1043400008D950F400034FEA032323FA02F048BFD0
:104350004042704710B500F00CF900BF499224802C
:10436000002070476FF0004282EA20007047000092
:10437000C10DD1F19E0206DB4FEA002343F000435A
:1043800023FA02F07047004207D54FEA4001B1F12D
:10439000FE4F02D24FF00000704710B500F0E9F870
:1043A00049922480002070476FEA20007047000087
:1043B00010F0004148BF4042B0FA80F310FA03F217
:1043C000C3F19D030BD051EAC35101EB12205306F8
:1043D00038BF704700F1010008BF20F001007047AE
:1043E000B0FA80F310FA03F2C3F19D030AD0D905A5
:1043F00001EB1220530638BF704700F1010008BFDF
:1044000020F001007047000050EA010C00F1138019
:104410001CF5000F58BFBCF5000F01D4884270474F
:1044200007D710F5000F58BF11F5000F15D48842BB
:104430007047894270471CF5000F04D5BCF5000F8A
:10444000F7D5814270474FF0807C1CEB400F38BF9E
:104450001CEB410F01D28142704710B500F089F882
:10446000922449004FF000504FF08051FFF796BE64
:104470004FF47F0C1CEAD0121EBF1CEAD11392EA43
:104480000C0F93EA0C0F00F0478090EA010F48BF31
:1044900042F480724FF0004C4CEA00204CEA0121BB
:1044A00002EB0302A0FB0113A2F50002002918BFD2
:1044B00043F001035B0028BF4FEA330342EB224283
:1044C0005FEA132C4CEBC2502EBFBCEB436FB2F52E
:1044D0007C0F70474FEA036CBCF1004F08BF20F01F
:1044E0000100B2F57C0F38BF70470BD582F0FF0298
:1044F00012F5803FC8BF704700F1C040D8BF00F040
:104500000040704700F5000C5FEA4C0C48BF704754
:10451000B0F1C04000F073B890EA010F0CEAD1137B
:1045200048BF42F48072624538BF634504D280EAD6
:10453000010000F00040704710B500F01AF800BF0D
:104540008900013E00F007B800F009B85FEA410CAD
:104550005FEA1C6C08D080EA010000F050B85FEA06
:10456000400C5FEA1C6CF6D14FF00040A0F58000D3
:1045700070470EF1020E2EF0030E5EF8044B24423B
:1045800004D44FEA4102B2F17F4F11D84FEA400301
:10459000B3F17F4F0CD80ED14FEAD07CB2F17F4FF0
:1045A0000CEB4C0C0CF1020C08BF4CEBD17C04E082
:1045B0004FF0080C01E04FEAD17C0CEB4C0324FADD
:1045C00003F404F00704B4F1040C06D20EEB840CDF
:1045D000BDE810404CF0010C6047DFE80CF0070824
:1045E00002024FF00040A0F5800010BD08464200D6
:1045F00018BFD2F1807288BF00F0004010BDFF21CB
:1046000041EAD050C005704751EA000C00F1138018
:104610001CF5000F58BFBCF5000F01D48142704754
:1046200007D711F5000F58BF10F5000F15D48142C0
:104630007047894270471CF5000F04D5BCF5000F88
:10464000F7D5884270474FF0807C1CEB410F38BF94
:104650001CEB400F01D28842704780EA010081EADA
:10466000000180EA0100FFF7F8BE000090EA010FA8
:1046700048BF81F000413FF536AD421A04D882F0C0
:104680000042A0EB020011444FEAD0524FF07F4CA1
:104690001CEA410FA2EBD15318BF9CEA026F4AD02B
:1046A0004FF0004C4CEA00204CEA012121FA03FCB7
:1046B000B0EB0C0C0FD412F0FE0F36D05FEA4C00BA
:1046C0001DD5001240EBC25038BF70471CF03F0FA1
:1046D00018BF70470BE0A2F101025FEA1C2040EB1B
:1046E000C25038BF70471CF07F0F18BF7047C3F12E
:1046F0002003994014BF401E20F00100704780083D
:104700004FEA122308BF7047B0FA80FCA2EB0C02FC
:10471000CCF1280C60FA0CF093EA122F04BF00EBE6
:10472000C25070474FEAC3707047130A5FEADC104B
:1047300008BF7047F6E79CEA026F04D010EA5C0FEE
:1047400008BF0020704710B5FFF713FF40DFF63EAB
:1047500081F0004070470000000000000000002FC2
:10476000000000000700070000147F147F140024DD
:104770002A7F2A120062640813230036495522500A
:1047800000000503000000001C224100000041223F
:104790001C000014083E08140008083E0808000029
:1047A00000A0600000080808080800006060000021
:1047B000002010080402003E5149453E0000427F9F
:1047C0004000004261514946002141454B310018EB
:1047D00014127F10002745454539003C4A494930AD
:1047E0000001710905030036494949360006494967
:1047F000291E000036360000000056360000000872
:10480000142241000014141414140000412214084E
:1048100000020151090600324959513E007C121133
:10482000127C007F49494936003E41414122007FC8
:104830004141221C007F49494941007F0909090182
:10484000003E4149497A007F0808087F0000417F07
:104850004100002040413F01007F08142241007FB9
:1048600040404040007F020C027F007F0408107F20
:10487000003E4141413E007F09090906003E415189
:10488000215E007F09192946004649494931000146
:10489000017F0101003F4040403F001F2040201F9A
:1048A000003F4038403F006314081463000708705D
:1048B000080700615149454300007F414100005510
:1048C0002A552A55000041417F00000402010204DC
:1048D00000404040404000000102040000205454C9
:1048E0005478007F48444438003844444420003819
:1048F0004444487F00385454541800087E0901028B
:104900000018A4A4A47C007F080404780000447D5F
:104910004000004080847D00007F1028440000009B
:10492000417F4000007C04180478007C080404786F
:1049300000384444443800FC24242418001824245B
:1049400018FC007C08040408004854545420000457
:104950003F444020003C4040207C001C2040201C64
:10496000003C4030403C004428102844001CA0A0DB
:10497000A07C004464544C44141414141414000017
:104980000000000000000000000000000000000027
:1049900000F80000000000000033300000000010AC
:1049A0000C06100C0600000000000000000040C0D3
:1049B0007840C0784000043F04043F0404000070C5
:1049C00088FC08300000001820FF211E0000F008BD
:1049D000F000E018000000211C031E211E0000F062
:1049E0000888700000001E212324192721101016AA
:1049F0000E000000000000000000000000000000A9
:104A000000E0180402000000000718204000000227
:104A10000418E0000000004020180700000040409B
:104A200080F0804040000202010F010202000000FD
:104A300000F0000000000101011F01010100000061
:104A400000000000000080B07000000000000000C6
:104A5000000000000000000101010101010100004F
:104A600000000000000000303000000000000000E6
:104A7000000080601804006018060100000000E0DB
:104A800010080810E000000F102020100F00001088
:104A900010F8000000000020203F202000000070DF
:104AA00008080888700000302824222130000030D7
:104AB0000888884830000018202020110E000000CF
:104AC000C02010F8000000070424243F240000F850
:104AD0000888880808000019212020110E0000E035
:104AE000108888180000000F112020110E000038D7
:104AF0000808C83808000000003F000000000070EF
:104B0000880808887000001C222121221C0000E077
:104B100010080810E0000000312222110F000000F0
:104B200000C0C000000000000030300000000000A5
:104B30000080000000000000806000000000000015
:104B400080402010080000010204081020004040AE
:104B500040404040400004040404040404000008F1
:104B600010204080000000201008040201000070A6
:104B700048080808F0000000003036010000C0308E
:104B8000C828E810E0000718272423140B000000B1
:104B9000C038E0000000203C23020227382008F83B
:104BA000888888700000203F202020110E00C0302F
:104BB000080808083800071820202010080008F806
:104BC00008080810E000203F202020100F0008F8FF
:104BD0008888E8081000203F20202320180008F8CB
:104BE0008888E8081000203F200003000000C03043
:104BF00008080838000007182020221E020008F8C4
:104C000008000008F808203F210101213F2000088A
:104C100008F8080800000020203F202000000000C5
:104C20000808F8080800C08080807F00000008F8AD
:104C300088C028180800203F20012638200008F8E6
:104C4000080000000000203F20202020300008F84D
:104C5000F800F8F80800203F003F003F200008F867
:104C600030C00008F808203F200007183F00E0107F
:104C700008080810E0000F10202020100F0008F88E
:104C800008080808F000203F210101010000E010A1
:104C900008080810E0000F18242438504F0008F8C6
:104CA000888888887000203F2000030C3020007026
:104CB0008808080838000038202121221C00180824
:104CC00008F8080818000000203F2000000008F83D
:104CD00008000008F808001F202020201F00087886
:104CE000880000C83808000007380E010000F808E6
:104CF00000F80008F800033C0700073C0300081810
:104D000068808068180820302C03032C3020083875
:104D1000C800C83808000000203F2000000010082C
:104D20000808C83808002038262120201800000074
:104D300000FE020202000000007F40404000000C24
:104D400030C000000000000000010638C000000272
:104D50000202FE000000004040407F000000000012
:104D60000402020204000000000000000000000035
:104D70000000000000008080808080808080000231
:104D8000020400000000000000000000000000001D
:104D90008080808000000019242222223F2008F811
:104DA000008080000000003F112020110E00000054
:104DB000008080800000000E1120202011000000E3
:104DC00000808088F800000E112020103F20000095
:104DD000808080800000001F222222221300008099
:104DE00080F0888888180020203F202000000000E4
:104DF000808080808000006B94949493600008F819
:104E0000008080800000203F210000203F200080A3
:104E10009898000000000020203F202000000000A3
:104E200000809898000000C08080807F000008F813
:104E3000000080808000203F24022D3020000008E8
:104E400008F8000000000020203F202000008080A3
:104E5000808080808000203F20003F20003F8080B5
:104E6000008080800000203F210000203F200000C3
:104E7000808080800000001F202020201F00808074
:104E800000808000000080FFA12020110E000000A3
:104E9000008080808000000E112020A0FF80808094
:104EA00080008080800020203F2120000100000041
:104EB0008080808080000033242424241900008016
:104EC00080E0808000000000001F20200000808023
:104ED000000000808000001F202020103F208080E4
:104EE00080000080808000010E3008060100808074
:104EF0000080008080800F300C030C300F00008099
:104F00008000808080000020312E0E3120008080C3
:104F100080000080808080818E70180601000080F3
:104F20008080808080000021302C22213000000011
:104F30000000807C020200000000003F40400000B2
:104F40000000FF00000000000000FF000000000261
:104F5000027C800000000040403F0000000000068E
:104F60000101020204040000000000000000000033
:104F7000904F000800000020E40300006C010008CE
:104F800028510008E4030020A4070000C80100081D
:104F9000011013E40314202004922084A24A044048
:104FA000090102030406070809833A071BF01001F0
:104FB0002AFF050215F01B0F04012AFF0502130F3B
:104FC00018094040405F55555575041A5F0C09118A
:104FD00021080C11200F094989790909090F201F9F
:104FE000112FFE02424ACA4A0304134202FE000E77
:104FF00014FF40504C4340404F50505C40FF1BF862
:1050000088012AFF050215F81B1F08012A7F200BC3
:10501000109F80E23B808201000916E2A2928A86FC
:10502000828080041840807F172424A4FEA3221BC2
:1050300022CCAA011415080601FF2B010401051159
:10504000FF0202025808101010FF109008C302114E
:1050500008080F100444827F01808040432C1028F0
:105060004681A018094040484848C8784F060515B1
:10507000484840400009150312122222528A063C79
:10508000106080BA19040B11C030FB1E4040434031
:105090007F061C7F424106094FC02941080B1110B1
:1050A000D030FF30D0121C10101F3D080402019EAA
:1050B0000D1101020408211116FE222222FE071200
:1050C000FE828292A29E100880601F0242827F0FA1
:1050D00011FF402F102C438011000B1490884C5767
:1050E000A42454548C84180801018042221A0744D5
:1050F0001D423E01018AF9E1000D14E4242CB4257F
:105100002624B42C24E404180AFF02011E121212F1
:105110001E41860911600910122C020304042009A3
:08512000060708090204060855
:0400000508000131BD
:00000001FF
